:100000000C9401010C9429010C9429010C942901F0
:100010000C9429010C9429010C9429010C942901B8
:100020000C9429010C9429010C9429010C942901A8
:100030000C9429010C9429010C9429010C94290198
:100040000C94CD030C9429010C943D040C941704DA
:100050000C9429010C9429010C9429010C94290178
:100060000C9429010C9429014D61736B3A20523D87
:100070003120473D3220423D3420573D372E20432A
:10008000482F5049582F50554C53453A2035733B13
:1000900020414C4C3A20302E35732E0053504545AC
:1000A00044203132353030307C3235303030307CA5
:1000B0003530303030307C313030303030307C32A0
:1000C0003030303030307C343030303030300057E9
:1000D000414C4B207C2050554C5345206368616E49
:1000E0006E656C2077696474685F75732832302E92
:1000F0002E35303029004F4646207C2048454C5054
:10010000207C20434820302E2E3935207C20504939
:100110005820302E2E333120302E2E37207C204197
:100120004C4C20302E2E370042302E31205354417B
:1001300054494F4E415259204F4E4C593B20533158
:10014000204F4646206265666F7265207769726946
:100150006E672F706F776572206368616E67657375
:100160002E0052554E3B205331206D757374206222
:10017000652052554E20746F20656E61626C65205B
:100180006C696768740053504920487A3D004F46B7
:1001900046004552523B206F757470757473204F42
:1001A00046460054494D454F55543B204F46460066
:1001B0000000000800020100000304070000000026
:1001C0000000000000000000250028002B000000B7
:1001D0000000240027002A0004040404040404048A
:1001E00002020202020203030303030301020408E2
:1001F0001020408001020408102001020408102091
:100200006B0811241FBECFEFD8E0DEBFCDBF22E0C8
:10021000A6E4B1E001C01D92AE34B207E1F711E0EF
:10022000A0E0B1E0E2E2F2E102C005900D92A63456
:10023000B107D9F711E0C1E0D1E004C02197FE0178
:100240000E94E608C030D107C9F70E946F040C94E1
:100250000F090C94000080369105E0F4FC0124E0C5
:10026000F695E7952A95E1F7EE0FFF1FE05CFD4F4D
:100270009C012F70332781E090E002C0880F991F06
:100280002A95E2F720813181822B932B9183808301
:1002900081E0089580E0089590E0FC01E451FE4F74
:1002A000249188529E4FFC018491882399F090E01C
:1002B000880F991FFC01E253FE4FA591B491FC01F8
:1002C000EC53FE4F859194918FB7F894EC91E22B0B
:1002D000EC938FBF089590E0FC01E055FE4F249110
:1002E000FC01E451FE4F3491FC01E852FE4FE491D1
:1002F000EE23C9F0222339F0233001F1A8F4213094
:1003000019F1223029F1F0E0EE0FFF1FEC53FE4F00
:10031000A591B4918FB7F894EC91611126C03095F6
:100320003E233C938FBF08952730A9F02830C9F0B1
:10033000243049F7809180008F7D03C08091800038
:100340008F7780938000DFCF84B58F7784BDDBCF3C
:1003500084B58F7DFBCF8091B0008F778093B00004
:10036000D2CF8091B0008F7DF9CF3E2BDACF3FB74F
:10037000F89480919F019091A001A091A101B0916A
:10038000A20126B5A89B05C02F3F19F00196A11D1B
:10039000B11D3FBFBA2FA92F982F8827BC01CD01CF
:1003A000620F711D811D911D42E0660F771F881F2E
:1003B000991F4A95D1F70895AF92BF92CF92DF92DD
:1003C000EF92FF920F931F93CF93DF936C017B010A
:1003D0008B01040F151FEB015E01AE18BF08C0179B
:1003E000D10759F06991D601ED91FC910190F0810E
:1003F000E02DC6010995892B79F7C501DF91CF91D1
:100400001F910F91FF90EF90DF90CF90BF90AF9032
:100410000895FC01538D448D252F30E0842F90E00A
:10042000821B930B541710F0CF96089501970895EF
:10043000FC01918D828D981761F0A28DAE0FBF2FB8
:10044000B11D5D968C91928D9F5F9F73928F90E00E
:1004500008958FEF9FEF0895FC01918D828D98177D
:1004600031F0828DE80FF11D858D90E008958FEFBA
:100470009FEF0895FC01918D228D892F90E0805C83
:100480009F4F821B91098F739927089583EA91E00A
:100490000E943A0221E0892B09F420E0822F08957E
:1004A00080E090E0892B29F00E94460281110C9493
:1004B00000000895FC01A48DA80FB92FB11DA35A07
:1004C000BF4F2C91848D90E001968F739927848F74
:1004D000A689B7892C93A089B1898C918370806497
:1004E0008C93938D848D981306C00288F389E02D38
:1004F00080818F7D80830895EF92FF920F931F93E9
:10050000CF93DF93EC0181E0888F9B8D8C8D9813C6
:100510001AC0E889F989808185FF15C09FB7F894D2
:10052000EE89FF896083E889F9898081837080641E
:1005300080839FBF81E090E0DF91CF911F910F9169
:10054000FF90EF900895F62E0B8D10E00F5F1F4F78
:100550000F731127E02E8C8D8E110CC00FB607FC87
:10056000FACFE889F989808185FFF5CFCE010E9415
:100570005A02F1CFEB8DEC0FFD2FF11DE35AFF4F27
:10058000F0829FB7F8940B8FEA89FB8980818062A3
:10059000CFCF0F931F93CF93DF938C01D0E0C0E0B8
:1005A000F801EC0FFD1F6491662341F083EA91E0AE
:1005B0000E947C02892B11F02196F2CFCE01DF91AF
:1005C000CF911F910F910895CF93DF93EC01888D08
:1005D0008823B9F0AA89BB89E889F9898C9185FDBE
:1005E00003C0808186FD0DC00FB607FCF7CF8C914C
:1005F00085FFF2CF808185FFEDCFCE010E945A02A8
:10060000E9CFDF91CF91089561E089E00E946B010D
:1006100060E088E00C946B010F931F93CF938B01E4
:10062000009759F1DC012C91222339F1FB01108252
:10063000118212821382FC01C191CC2319F1C053A3
:10064000CA30D8F4D8012D913D914D915C9121345F
:10065000B2E43B07BFE04B07510578F4AAE0B0E0F5
:100660000E94EC086C0F711D811D911DD8016D93C6
:100670007D938D939C931397DFCF80E0CF911F9153
:100680000F91089581E0FACF42E050E06AE171E015
:1006900083EA91E00C94DC01CF93DF930E94C902BE
:1006A000EC010E9444038C0F9D1FDF91CF910895B0
:1006B00088E291E00E944C0386EF90E00E944C0398
:1006C0008FEC90E00E944C038CE990E00E944C0378
:1006D00088E690E00C944C030F931F930E94040350
:1006E00060E08AE00E946B0100910001109101011D
:1006F000209102013091030140E052E16AE770E08D
:1007000080E0041715072607370740F476956795AC
:10071000579547958F5F8630A1F787E0982F906AAD
:100720009695809581709CBD8DBD80E025E030E080
:10073000982F9695F901E91BF109EE0FFF1FE05C78
:10074000FD4F4081918180FD942F9EBD00000DB42E
:1007500007FEFDCF9EB58F5F8C3051F761E08AE0D8
:100760000E946B0183E090E00197F1F760E08AE07E
:100770001F910F910C946B010E94040381E090E0A3
:100780009093070180930601E0E4F2E08CE0DF0142
:100790001D928A95E9F70C946C031F920F920FB685
:1007A0000F9211242F933F938F939F93AF93BF93F7
:1007B00080919B0190919C01A0919D01B0919E011F
:1007C00030919A0123E0230F2D3758F50196A11D92
:1007D000B11D20939A0180939B0190939C01A0935B
:1007E0009D01B0939E0180919F019091A001A091E5
:1007F000A101B091A2010196A11DB11D80939F019D
:100800009093A001A093A101B093A201BF91AF91D9
:100810009F918F913F912F910F900FBE0F901F903E
:10082000189526E8230F0296A11DB11DD2CF1F9265
:100830000F920FB60F9211242F933F934F935F9314
:100840006F937F938F939F93AF93BF93EF93FF9398
:1008500083EA91E00E945A02FF91EF91BF91AF911C
:100860009F918F917F916F915F914F913F912F91C8
:100870000F900FBE0F901F9018951F920F920FB6FA
:100880000F9211242F938F939F93EF93FF93E091F7
:10089000B301F091B4018081E091B901F091BA0106
:1008A00082FD1BC090818091BC018F5F8F7320916E
:1008B000BD01821741F0E091BC01F0E0ED55FE4F23
:1008C000958F8093BC01FF91EF919F918F912F9114
:1008D0000F900FBE0F901F9018958081F4CFCF938B
:1008E000DF93CDB7DEB7AC970FB6F894DEBF0FBE7F
:1008F000CDBF789484B5826084BD84B5816084BDA9
:1009000085B5826085BD85B5816085BD80916E00AD
:10091000816080936E0010928100809181008260DE
:10092000809381008091810081608093810080911B
:1009300080008160809380008091B100846080930A
:10094000B1008091B00081608093B00080917A0006
:10095000846080937A0080917A00826080937A002C
:1009600080917A00816080937A0080917A0080681B
:1009700080937A001092C10061E089E00E946B01CF
:1009800089E00E944C0160E088E00E946B0188E0F1
:100990000E944C0160E08AE00E946B018AE00E94A4
:1009A0004C011FB7F89480914601811124C0E2EEFA
:1009B000F1E08491E6EFF1E09491E82FF0E0EE0FA2
:1009C000FF1FE253FE4FA591B491EC91E92321F46E
:1009D00061E08AE00E946B018AE00E944C018CB5C4
:1009E00080618CBD8CB580648CBD8DE00E944C0113
:1009F0008BE00E944C01809146018F5F80934601FD
:100A00001FBF0E94BC03E091B301F091B40182E0EA
:100A10008083E091AF01F091B0011082E091B101CB
:100A2000F091B20180E180831092BB01E091B701A7
:100A3000F091B80186E08083E091B501F091B601B4
:100A4000808180618083E091B501F091B601808161
:100A500088608083E091B501F091B6018081806863
:100A60008083E091B501F091B60180818F7D808314
:100A70000E9458038E010F5F1F4F180148E8442E53
:100A800043E1542E612C712C10E11CA783EA91E004
:100A90000E943A02892B59F083EA91E00E941802E1
:100AA0008D30B9F40CA501500CA70111EFCF809146
:100AB000060190910701019709F065C280E090E07E
:100AC000892B11F30E9446028823F1F20E94000054
:100AD000DBCF909199018A3009F03EC291113EC15D
:100AE000E0919801EE2309F439C1F0E0E85AFE4F95
:100AF00010820E94BC031BA21AA21CA21DA21EA24D
:100B00001FA218A619A61AA61BA688E0D1011D923D
:100B10008A95E9F76DE171E088E591E00E94980817
:100B20008101F12C009779F0B4E0FB16A1F1F39468
:100B3000F801819391938F016DE171E090E080E085
:100B40000E949808EFCFFF2031F1F1E0FF123FC083
:100B500009811A8160E271E0C8010E940609892BAF
:100B600021F481E090E09BA38AA364E271E0C801D4
:100B70000E940609892B21F482E090E09BA38AA3BE
:100B800069E271E0C8010E940609892B21F406E0A0
:100B900010E01BA30AA30AA11BA1CCA0DDA0EEA01C
:100BA000FFA088A499A4AAA4BBA40930110508F049
:100BB000D5C0F801E252FA4F0C94E608A706B30636
:100BC000AC06EB06F7061C077907A407B606BE01BC
:100BD0006C5D7F4F8B819C810E940C038823D9F22E
:100BE00012E0F11265C009811A816EE271E0C8015C
:100BF0000E940609CCA0DDA0EEA0FFA0892B51F435
:100C000020E6C216D104E104F10420F483E090E070
:100C10009BA38AA361E371E0C8010E940609892BA6
:100C200051F498E0C916D104E104F10420F4A5E0E0
:100C3000B0E0BBA3AAA365E371E0C8010E94060966
:100C4000892B09F0A8CFB8E4CB16B8EEDB06B1E0EB
:100C5000EB06F10441F1E0E9CE16E0EDDE06E3E05B
:100C6000EE06F10401F1F0E2CF16F1EADF06F7E05B
:100C7000EF06F104C1F000E4C01602E4D0060FE074
:100C8000E006F10481F010E8C11614E8D1061EE177
:100C9000E106F10441F0C11429E0D2062DE3E20699
:100CA000F10409F078CF88E090E09BA38AA373CF8A
:100CB00093E0F91270CFBE01685D7F4F8D819E81F8
:100CC0000E940C03882309F466CF09811A816BE323
:100CD00071E0C8010E9406098CA09DA0AEA0BFA033
:100CE000C8A4D9A4EAA4FBA4892B81F4A0E28A16A3
:100CF0009104A104B10450F4B8E0CB16D104E1048E
:100D0000F10420F4E4E0F0E0FBA3EAA36FE371E078
:100D1000C8010E940609892B09F03DCFF0E68F1625
:100D20009104A104B10408F036CF04E1C01AD1083F
:100D3000E108F10811EEC11611E0D106E104F10459
:100D400008F029CF27E030E03BA32AA324CF82E993
:100D500091E00E944C0302C00E9458031092980137
:100D6000109299019FCE8EE891E0F3CFC0920001DE
:100D7000D0920101E0920201F092030186E891E035
:100D80000E94C90219A28E010F5D1F4FC701B60153
:100D90002AE030E040E050E00E94C40869017A0196
:100DA000605DD8016E938D01C114D104E104F1049A
:100DB00069F7109769F0FD0101900020E9F731977C
:100DC000AF014A1B5B0BBD0183EA91E00E94DC018D
:100DD0000E944403C3CFC6010E942B0140925001E0
:100DE00050925101609252017092530155C0B0E28D
:100DF000CB16D10498F7E8E08E16910478F7C60177
:100E0000880F991FC80ED91EF12CE12CC4010E2C9D
:100E100002C0969587950A94E2F780FF05C0C70146
:100E20008C0D9D1D0E942B01FFEFEF1AFF0A23E09E
:100E3000E216F10459F7D2CFB12CA12C38E0C31639
:100E4000D104B8F4F12CE12CC6010E2C02C0969509
:100E500087950A94E2F780FF05C0C7018A0D9B1DA4
:100E60000E942B018FEFE81AF80A93E0E916F104CB
:100E700059F7A3E0AA0EB11CB0E6AB16B104F1F627
:100E800084EF91E0A0E0B0E0809350019093510195
:100E9000A0935201B09353010E946C032FB7F894B2
:100EA00080919B0190919C01A0919D01B0919E0128
:100EB0002FBF8093540190935501A0935601B09396
:100EC00057010E94B70160934701709348018093D6
:100ED000490190934A0110930701009306010730DE
:100EE000110521F060E089E00E946B0182E691E04B
:100EF00030CF10924B01809140029091410281606D
:100F0000909341028093400280E29EE4A0E0B0E032
:100F10008093500190935101A0935201B0935301DB
:100F20002FB7F89480919B0190919C01A0919D0115
:100F3000B0919E012FBF80934C0190934D01A093DF
:100F40004E01B0934F01A8CFC6010E942B01909291
:100F500005018092040142CF9111A4CDE091980146
:100F6000EF3348F491E09E0F90939801F0E0E85A37
:100F7000FE4F808397CD81E0809399011092980174
:100F80000E94BC038FCD2FB7F89480919B01909164
:100F90009C01A0919D01B0919E012FBF40915401F1
:100FA0005091550160915601709157018C019D013E
:100FB000041B150B260B370B40915001509151012A
:100FC00060915201709153010417150726073707E6
:100FD00038F00E94BC0383EA91E00E944C036ECD7E
:100FE000209106013091070126303105C9F5409165
:100FF0004C0150914D0160914E0170914F018C0157
:101000009D01041B150B260B370BB901A8014639AE
:1010100051056105710508F451CD80934C01909301
:101020004D01A0934E01B0934F0180914B018F5F12
:1010300080934B01803618F00E94BC033FCDE0E462
:10104000F2E09CE0DF011D929A95E9F790E00E94A2
:101050002B010E946C0360E089E00E946B012ECDA1
:101060002730310509F02ACD0E94B70100914701D0
:10107000109148012091490130914A01601B710B88
:10108000820B930B603D77408105910508F416CDE6
:101090000E94B70160934701709348018093490112
:1010A00090934A01F89485B18C7F816085B98091D5
:1010B0000401909105018230910538F0880F991F45
:1010C000880F991F05970197F1F785B18E7F826090
:1010D00085B97894F3CCE3EAF1E01382128288EECA
:1010E00093E0A0E0B0E084839583A683B7838CE08F
:1010F00091E09183808385EC90E09587848784ECF0
:1011000090E09787868780EC90E0918B808B81ECD4
:1011100090E0938B828B82EC90E0958B848B86ECB5
:1011200090E0978B868B118E128E138E148E0895FD
:101130004CE452E00E949D080895FA01A191B0810B
:10114000009719F41097E1F0CD01DC01CD010D906D
:10115000002011F4C00113C0FB012191222319F0DA
:101160002015D9F7F3CFFB012191201519F41E9218
:10117000119606C02223C1F70D900020A1F7D001DF
:10118000FA01A193B0830895A1E21A2EAA1BBB1BFA
:10119000FD010DC0AA1FBB1FEE1FFF1FA217B30743
:1011A000E407F50720F0A21BB30BE40BF50B661F59
:1011B000771F881F991F1A9469F76095709580951D
:1011C00090959B01AC01BD01CF010895EE0FFF1F6B
:1011D0000590F491E02D09940E94F708A59F900DC9
:1011E000B49F900DA49F800D911D11240895A29F7E
:1011F000B001B39FC001A39F700D811D1124911DEB
:10120000B29F700D811D1124911D0895FB01DC0119
:101210008D91019080190110D9F3990B0895F894DC
:02122000FFCFFE
:1012220048E8010032000100000000007C02DC01FD
:101232000902E4023A0218022C020D0A00200900F7
:101242004F46460048454C500057414C4B004348DE
:1012520000414C4C00535045454400504958005001
:06126200554C534500004D
:00000001FF
